{
  "_format": "hh-sol-artifact-1",
  "contractName": "RealEstate",
  "sourceName": "contracts/RealEstate.sol",
  "abi": [
    {
      "anonymous": false,
      "inputs": [
        {
          "indexed": false,
          "internalType": "uint256",
          "name": "id",
          "type": "uint256"
        },
        {
          "indexed": false,
          "internalType": "address",
          "name": "newOwner",
          "type": "address"
        }
      ],
      "name": "OwnershipTransferred",
      "type": "event"
    },
    {
      "anonymous": false,
      "inputs": [
        {
          "indexed": false,
          "internalType": "uint256",
          "name": "id",
          "type": "uint256"
        },
        {
          "indexed": false,
          "internalType": "string",
          "name": "location",
          "type": "string"
        },
        {
          "indexed": false,
          "internalType": "uint256",
          "name": "price",
          "type": "uint256"
        },
        {
          "indexed": false,
          "internalType": "address",
          "name": "owner",
          "type": "address"
        }
      ],
      "name": "PropertyAdded",
      "type": "event"
    },
    {
      "anonymous": false,
      "inputs": [
        {
          "indexed": false,
          "internalType": "uint256",
          "name": "id",
          "type": "uint256"
        }
      ],
      "name": "PropertyDeleted",
      "type": "event"
    },
    {
      "anonymous": false,
      "inputs": [
        {
          "indexed": false,
          "internalType": "uint256",
          "name": "id",
          "type": "uint256"
        },
        {
          "indexed": false,
          "internalType": "uint256",
          "name": "newPrice",
          "type": "uint256"
        }
      ],
      "name": "PropertyPriceUpdated",
      "type": "event"
    },
    {
      "inputs": [
        {
          "internalType": "string",
          "name": "_location",
          "type": "string"
        },
        {
          "internalType": "uint256",
          "name": "_price",
          "type": "uint256"
        }
      ],
      "name": "addProperty",
      "outputs": [],
      "stateMutability": "nonpayable",
      "type": "function"
    },
    {
      "inputs": [
        {
          "internalType": "uint256",
          "name": "_propertyId",
          "type": "uint256"
        }
      ],
      "name": "deleteProperty",
      "outputs": [],
      "stateMutability": "nonpayable",
      "type": "function"
    },
    {
      "inputs": [
        {
          "internalType": "address",
          "name": "_owner",
          "type": "address"
        }
      ],
      "name": "getPropertiesByOwner",
      "outputs": [
        {
          "components": [
            {
              "internalType": "uint256",
              "name": "id",
              "type": "uint256"
            },
            {
              "internalType": "string",
              "name": "location",
              "type": "string"
            },
            {
              "internalType": "uint256",
              "name": "price",
              "type": "uint256"
            },
            {
              "internalType": "address",
              "name": "owner",
              "type": "address"
            }
          ],
          "internalType": "struct RealEstate.Property[]",
          "name": "",
          "type": "tuple[]"
        }
      ],
      "stateMutability": "view",
      "type": "function"
    },
    {
      "inputs": [
        {
          "internalType": "uint256",
          "name": "_propertyId",
          "type": "uint256"
        }
      ],
      "name": "getProperty",
      "outputs": [
        {
          "components": [
            {
              "internalType": "uint256",
              "name": "id",
              "type": "uint256"
            },
            {
              "internalType": "string",
              "name": "location",
              "type": "string"
            },
            {
              "internalType": "uint256",
              "name": "price",
              "type": "uint256"
            },
            {
              "internalType": "address",
              "name": "owner",
              "type": "address"
            }
          ],
          "internalType": "struct RealEstate.Property",
          "name": "",
          "type": "tuple"
        }
      ],
      "stateMutability": "view",
      "type": "function"
    },
    {
      "inputs": [],
      "name": "getPropertyCount",
      "outputs": [
        {
          "internalType": "uint256",
          "name": "",
          "type": "uint256"
        }
      ],
      "stateMutability": "view",
      "type": "function"
    },
    {
      "inputs": [],
      "name": "listAllProperties",
      "outputs": [
        {
          "components": [
            {
              "internalType": "uint256",
              "name": "id",
              "type": "uint256"
            },
            {
              "internalType": "string",
              "name": "location",
              "type": "string"
            },
            {
              "internalType": "uint256",
              "name": "price",
              "type": "uint256"
            },
            {
              "internalType": "address",
              "name": "owner",
              "type": "address"
            }
          ],
          "internalType": "struct RealEstate.Property[]",
          "name": "",
          "type": "tuple[]"
        }
      ],
      "stateMutability": "view",
      "type": "function"
    },
    {
      "inputs": [
        {
          "internalType": "uint256",
          "name": "_propertyId",
          "type": "uint256"
        }
      ],
      "name": "ownerOf",
      "outputs": [
        {
          "internalType": "address",
          "name": "",
          "type": "address"
        }
      ],
      "stateMutability": "view",
      "type": "function"
    },
    {
      "inputs": [
        {
          "internalType": "uint256",
          "name": "",
          "type": "uint256"
        }
      ],
      "name": "properties",
      "outputs": [
        {
          "internalType": "uint256",
          "name": "id",
          "type": "uint256"
        },
        {
          "internalType": "string",
          "name": "location",
          "type": "string"
        },
        {
          "internalType": "uint256",
          "name": "price",
          "type": "uint256"
        },
        {
          "internalType": "address",
          "name": "owner",
          "type": "address"
        }
      ],
      "stateMutability": "view",
      "type": "function"
    },
    {
      "inputs": [],
      "name": "propertyCount",
      "outputs": [
        {
          "internalType": "uint256",
          "name": "",
          "type": "uint256"
        }
      ],
      "stateMutability": "view",
      "type": "function"
    },
    {
      "inputs": [
        {
          "internalType": "uint256",
          "name": "_propertyId",
          "type": "uint256"
        },
        {
          "internalType": "address",
          "name": "_newOwner",
          "type": "address"
        }
      ],
      "name": "transferOwnership",
      "outputs": [],
      "stateMutability": "nonpayable",
      "type": "function"
    },
    {
      "inputs": [
        {
          "internalType": "uint256",
          "name": "_propertyId",
          "type": "uint256"
        },
        {
          "internalType": "uint256",
          "name": "_newPrice",
          "type": "uint256"
        }
      ],
      "name": "updatePropertyPrice",
      "outputs": [],
      "stateMutability": "nonpayable",
      "type": "function"
    }
  ],
  "bytecode": "0x608060405234801561001057600080fd5b506120e6806100206000396000f3fe608060405234801561001057600080fd5b50600436106100a95760003560e01c80639794984e116100715780639794984e146101645780639fcb274814610182578063c361a335146101b2578063f54e1aef146101d0578063f7b10808146101ec578063fce401b21461021f576100a9565b8063170140f1146100ae57806329507f73146100ca57806332665ffb146100e65780636352211e146101165780637326b90114610146575b600080fd5b6100c860048036038101906100c391906111ec565b61023b565b005b6100e460048036038101906100df9190611277565b6103de565b005b61010060048036038101906100fb91906111ec565b6105d4565b60405161010d91906113c8565b60405180910390f35b610130600480360381019061012b91906111ec565b61074e565b60405161013d91906113f9565b60405180910390f35b61014e6107de565b60405161015b9190611423565b60405180910390f35b61016c6107e7565b6040516101799190611563565b60405180910390f35b61019c60048036038101906101979190611585565b6109b1565b6040516101a99190611563565b60405180910390f35b6101ba610cf7565b6040516101c79190611423565b60405180910390f35b6101ea60048036038101906101e591906116e7565b610cfd565b005b610206600480360381019061020191906111ec565b610e9f565b604051610216949392919061178d565b60405180910390f35b610239600480360381019061023491906117d9565b610f77565b005b60008111801561024d57506000548111155b61028c576040517f08c379a000000000000000000000000000000000000000000000000000000000815260040161028390611865565b60405180910390fd5b3373ffffffffffffffffffffffffffffffffffffffff166001600083815260200190815260200160002060030160009054906101000a900473ffffffffffffffffffffffffffffffffffffffff1673ffffffffffffffffffffffffffffffffffffffff1614610330576040517f08c379a0000000000000000000000000000000000000000000000000000000008152600401610327906118f7565b60405180910390fd5b7f7156884be24ff0be75b08b7bf2034f16982585fcfc7fc22c70716ad234e926738160405161035f9190611423565b60405180910390a1600160008281526020019081526020016000206000808201600090556001820160006103939190611107565b60028201600090556003820160006101000a81549073ffffffffffffffffffffffffffffffffffffffff021916905550506000808154809291906103d690611946565b919050555050565b6000821180156103f057506000548211155b61042f576040517f08c379a000000000000000000000000000000000000000000000000000000000815260040161042690611865565b60405180910390fd5b600073ffffffffffffffffffffffffffffffffffffffff168173ffffffffffffffffffffffffffffffffffffffff160361049e576040517f08c379a0000000000000000000000000000000000000000000000000000000008152600401610495906119bb565b60405180910390fd5b3373ffffffffffffffffffffffffffffffffffffffff166001600084815260200190815260200160002060030160009054906101000a900473ffffffffffffffffffffffffffffffffffffffff1673ffffffffffffffffffffffffffffffffffffffff1614610542576040517f08c379a000000000000000000000000000000000000000000000000000000000815260040161053990611a4d565b60405180910390fd5b806001600084815260200190815260200160002060030160006101000a81548173ffffffffffffffffffffffffffffffffffffffff021916908373ffffffffffffffffffffffffffffffffffffffff1602179055507fba8cc72bdfdb4f3e2281c3f17f6be90c470f76dd1106321a2928859835874bc282826040516105c8929190611a6d565b60405180910390a15050565b6105dc611147565b6000821180156105ee57506000548211155b61062d576040517f08c379a000000000000000000000000000000000000000000000000000000000815260040161062490611865565b60405180910390fd5b600160008381526020019081526020016000206040518060800160405290816000820154815260200160018201805461066590611ac5565b80601f016020809104026020016040519081016040528092919081815260200182805461069190611ac5565b80156106de5780601f106106b3576101008083540402835291602001916106de565b820191906000526020600020905b8154815290600101906020018083116106c157829003601f168201915b50505050508152602001600282015481526020016003820160009054906101000a900473ffffffffffffffffffffffffffffffffffffffff1673ffffffffffffffffffffffffffffffffffffffff1673ffffffffffffffffffffffffffffffffffffffff16815250509050919050565b6000808211801561076157506000548211155b6107a0576040517f08c379a000000000000000000000000000000000000000000000000000000000815260040161079790611865565b60405180910390fd5b6001600083815260200190815260200160002060030160009054906101000a900473ffffffffffffffffffffffffffffffffffffffff169050919050565b60008054905090565b60606000805467ffffffffffffffff811115610806576108056115bc565b5b60405190808252806020026020018201604052801561083f57816020015b61082c611147565b8152602001906001900390816108245790505b5090506000600190505b60005481116109a957600160008281526020019081526020016000206040518060800160405290816000820154815260200160018201805461088a90611ac5565b80601f01602080910402602001604051908101604052809291908181526020018280546108b690611ac5565b80156109035780601f106108d857610100808354040283529160200191610903565b820191906000526020600020905b8154815290600101906020018083116108e657829003601f168201915b50505050508152602001600282015481526020016003820160009054906101000a900473ffffffffffffffffffffffffffffffffffffffff1673ffffffffffffffffffffffffffffffffffffffff1673ffffffffffffffffffffffffffffffffffffffff16815250508260018361097a9190611af6565b8151811061098b5761098a611b2a565b5b602002602001018190525080806109a190611b59565b915050610849565b508091505090565b6060600073ffffffffffffffffffffffffffffffffffffffff168273ffffffffffffffffffffffffffffffffffffffff1603610a22576040517f08c379a0000000000000000000000000000000000000000000000000000000008152600401610a1990611bed565b60405180910390fd5b600080600190505b6000548111610abe578373ffffffffffffffffffffffffffffffffffffffff166001600083815260200190815260200160002060030160009054906101000a900473ffffffffffffffffffffffffffffffffffffffff1673ffffffffffffffffffffffffffffffffffffffff1603610aab578180610aa790611b59565b9250505b8080610ab690611b59565b915050610a2a565b5060008167ffffffffffffffff811115610adb57610ada6115bc565b5b604051908082528060200260200182016040528015610b1457816020015b610b01611147565b815260200190600190039081610af95790505b509050600080600190505b6000548111610ceb578573ffffffffffffffffffffffffffffffffffffffff166001600083815260200190815260200160002060030160009054906101000a900473ffffffffffffffffffffffffffffffffffffffff1673ffffffffffffffffffffffffffffffffffffffff1603610cd8576001600082815260200190815260200160002060405180608001604052908160008201548152602001600182018054610bc990611ac5565b80601f0160208091040260200160405190810160405280929190818152602001828054610bf590611ac5565b8015610c425780601f10610c1757610100808354040283529160200191610c42565b820191906000526020600020905b815481529060010190602001808311610c2557829003601f168201915b50505050508152602001600282015481526020016003820160009054906101000a900473ffffffffffffffffffffffffffffffffffffffff1673ffffffffffffffffffffffffffffffffffffffff1673ffffffffffffffffffffffffffffffffffffffff1681525050838381518110610cbe57610cbd611b2a565b5b60200260200101819052508180610cd490611b59565b9250505b8080610ce390611b59565b915050610b1f565b50819350505050919050565b60005481565b6000825111610d41576040517f08c379a0000000000000000000000000000000000000000000000000000000008152600401610d3890611c59565b60405180910390fd5b60008111610d84576040517f08c379a0000000000000000000000000000000000000000000000000000000008152600401610d7b90611cc5565b60405180910390fd5b600080815480929190610d9690611b59565b9190505550604051806080016040528060005481526020018381526020018281526020013373ffffffffffffffffffffffffffffffffffffffff168152506001600080548152602001908152602001600020600082015181600001556020820151816001019081610e079190611e91565b506040820151816002015560608201518160030160006101000a81548173ffffffffffffffffffffffffffffffffffffffff021916908373ffffffffffffffffffffffffffffffffffffffff1602179055509050507fcff2578671e5e5cdf2c74d34dc424973c6ea7efc1d5905ef56bffec16cb43dfc600054838333604051610e93949392919061178d565b60405180910390a15050565b6001602052806000526040600020600091509050806000015490806001018054610ec890611ac5565b80601f0160208091040260200160405190810160405280929190818152602001828054610ef490611ac5565b8015610f415780601f10610f1657610100808354040283529160200191610f41565b820191906000526020600020905b815481529060010190602001808311610f2457829003601f168201915b5050505050908060020154908060030160009054906101000a900473ffffffffffffffffffffffffffffffffffffffff16905084565b600082118015610f8957506000548211155b610fc8576040517f08c379a0000000000000000000000000000000000000000000000000000000008152600401610fbf90611865565b60405180910390fd5b6000811161100b576040517f08c379a000000000000000000000000000000000000000000000000000000000815260040161100290611fd5565b60405180910390fd5b3373ffffffffffffffffffffffffffffffffffffffff166001600084815260200190815260200160002060030160009054906101000a900473ffffffffffffffffffffffffffffffffffffffff1673ffffffffffffffffffffffffffffffffffffffff16146110af576040517f08c379a00000000000000000000000000000000000000000000000000000000081526004016110a690612067565b60405180910390fd5b8060016000848152602001908152602001600020600201819055507ff73705cc3056ac9339b98dc8b7f9612e3851eb98f309b8bdff61cb3b0b34b9b482826040516110fb929190612087565b60405180910390a15050565b50805461111390611ac5565b6000825580601f106111255750611144565b601f0160209004906000526020600020908101906111439190611185565b5b50565b6040518060800160405280600081526020016060815260200160008152602001600073ffffffffffffffffffffffffffffffffffffffff1681525090565b5b8082111561119e576000816000905550600101611186565b5090565b6000604051905090565b600080fd5b600080fd5b6000819050919050565b6111c9816111b6565b81146111d457600080fd5b50565b6000813590506111e6816111c0565b92915050565b600060208284031215611202576112016111ac565b5b6000611210848285016111d7565b91505092915050565b600073ffffffffffffffffffffffffffffffffffffffff82169050919050565b600061124482611219565b9050919050565b61125481611239565b811461125f57600080fd5b50565b6000813590506112718161124b565b92915050565b6000806040838503121561128e5761128d6111ac565b5b600061129c858286016111d7565b92505060206112ad85828601611262565b9150509250929050565b6112c0816111b6565b82525050565b600081519050919050565b600082825260208201905092915050565b60005b838110156113005780820151818401526020810190506112e5565b60008484015250505050565b6000601f19601f8301169050919050565b6000611328826112c6565b61133281856112d1565b93506113428185602086016112e2565b61134b8161130c565b840191505092915050565b61135f81611239565b82525050565b600060808301600083015161137d60008601826112b7565b5060208301518482036020860152611395828261131d565b91505060408301516113aa60408601826112b7565b5060608301516113bd6060860182611356565b508091505092915050565b600060208201905081810360008301526113e28184611365565b905092915050565b6113f381611239565b82525050565b600060208201905061140e60008301846113ea565b92915050565b61141d816111b6565b82525050565b60006020820190506114386000830184611414565b92915050565b600081519050919050565b600082825260208201905092915050565b6000819050602082019050919050565b600060808301600083015161148260008601826112b7565b506020830151848203602086015261149a828261131d565b91505060408301516114af60408601826112b7565b5060608301516114c26060860182611356565b508091505092915050565b60006114d9838361146a565b905092915050565b6000602082019050919050565b60006114f98261143e565b6115038185611449565b9350836020820285016115158561145a565b8060005b85811015611551578484038952815161153285826114cd565b945061153d836114e1565b925060208a01995050600181019050611519565b50829750879550505050505092915050565b6000602082019050818103600083015261157d81846114ee565b905092915050565b60006020828403121561159b5761159a6111ac565b5b60006115a984828501611262565b91505092915050565b600080fd5b600080fd5b7f4e487b7100000000000000000000000000000000000000000000000000000000600052604160045260246000fd5b6115f48261130c565b810181811067ffffffffffffffff82111715611613576116126115bc565b5b80604052505050565b60006116266111a2565b905061163282826115eb565b919050565b600067ffffffffffffffff821115611652576116516115bc565b5b61165b8261130c565b9050602081019050919050565b82818337600083830152505050565b600061168a61168584611637565b61161c565b9050828152602081018484840111156116a6576116a56115b7565b5b6116b1848285611668565b509392505050565b600082601f8301126116ce576116cd6115b2565b5b81356116de848260208601611677565b91505092915050565b600080604083850312156116fe576116fd6111ac565b5b600083013567ffffffffffffffff81111561171c5761171b6111b1565b5b611728858286016116b9565b9250506020611739858286016111d7565b9150509250929050565b600082825260208201905092915050565b600061175f826112c6565b6117698185611743565b93506117798185602086016112e2565b6117828161130c565b840191505092915050565b60006080820190506117a26000830187611414565b81810360208301526117b48186611754565b90506117c36040830185611414565b6117d060608301846113ea565b95945050505050565b600080604083850312156117f0576117ef6111ac565b5b60006117fe858286016111d7565b925050602061180f858286016111d7565b9150509250929050565b7f496e76616c69642070726f706572747920494400000000000000000000000000600082015250565b600061184f601383611743565b915061185a82611819565b602082019050919050565b6000602082019050818103600083015261187e81611842565b9050919050565b7f4f6e6c7920746865206f776e65722063616e2064656c6574652074686520707260008201527f6f70657274790000000000000000000000000000000000000000000000000000602082015250565b60006118e1602683611743565b91506118ec82611885565b604082019050919050565b60006020820190508181036000830152611910816118d4565b9050919050565b7f4e487b7100000000000000000000000000000000000000000000000000000000600052601160045260246000fd5b6000611951826111b6565b91506000820361196457611963611917565b5b600182039050919050565b7f4e6577206f776e657220616464726573732063616e6e6f74206265207a65726f600082015250565b60006119a5602083611743565b91506119b08261196f565b602082019050919050565b600060208201905081810360008301526119d481611998565b9050919050565b7f4f6e6c7920746865206f776e65722063616e207472616e73666572206f776e6560008201527f7273686970000000000000000000000000000000000000000000000000000000602082015250565b6000611a37602583611743565b9150611a42826119db565b604082019050919050565b60006020820190508181036000830152611a6681611a2a565b9050919050565b6000604082019050611a826000830185611414565b611a8f60208301846113ea565b9392505050565b7f4e487b7100000000000000000000000000000000000000000000000000000000600052602260045260246000fd5b60006002820490506001821680611add57607f821691505b602082108103611af057611aef611a96565b5b50919050565b6000611b01826111b6565b9150611b0c836111b6565b9250828203905081811115611b2457611b23611917565b5b92915050565b7f4e487b7100000000000000000000000000000000000000000000000000000000600052603260045260246000fd5b6000611b64826111b6565b91507fffffffffffffffffffffffffffffffffffffffffffffffffffffffffffffffff8203611b9657611b95611917565b5b600182019050919050565b7f4f776e657220616464726573732063616e6e6f74206265207a65726f00000000600082015250565b6000611bd7601c83611743565b9150611be282611ba1565b602082019050919050565b60006020820190508181036000830152611c0681611bca565b9050919050565b7f4c6f636174696f6e2063616e6e6f7420626520656d7074790000000000000000600082015250565b6000611c43601883611743565b9150611c4e82611c0d565b602082019050919050565b60006020820190508181036000830152611c7281611c36565b9050919050565b7f5072696365206d7573742062652067726561746572207468616e207a65726f00600082015250565b6000611caf601f83611743565b9150611cba82611c79565b602082019050919050565b60006020820190508181036000830152611cde81611ca2565b9050919050565b60008190508160005260206000209050919050565b60006020601f8301049050919050565b600082821b905092915050565b600060088302611d477fffffffffffffffffffffffffffffffffffffffffffffffffffffffffffffffff82611d0a565b611d518683611d0a565b95508019841693508086168417925050509392505050565b6000819050919050565b6000611d8e611d89611d84846111b6565b611d69565b6111b6565b9050919050565b6000819050919050565b611da883611d73565b611dbc611db482611d95565b848454611d17565b825550505050565b600090565b611dd1611dc4565b611ddc818484611d9f565b505050565b5b81811015611e0057611df5600082611dc9565b600181019050611de2565b5050565b601f821115611e4557611e1681611ce5565b611e1f84611cfa565b81016020851015611e2e578190505b611e42611e3a85611cfa565b830182611de1565b50505b505050565b600082821c905092915050565b6000611e6860001984600802611e4a565b1980831691505092915050565b6000611e818383611e57565b9150826002028217905092915050565b611e9a826112c6565b67ffffffffffffffff811115611eb357611eb26115bc565b5b611ebd8254611ac5565b611ec8828285611e04565b600060209050601f831160018114611efb5760008415611ee9578287015190505b611ef38582611e75565b865550611f5b565b601f198416611f0986611ce5565b60005b82811015611f3157848901518255600182019150602085019450602081019050611f0c565b86831015611f4e5784890151611f4a601f891682611e57565b8355505b6001600288020188555050505b505050505050565b7f4e6577207072696365206d7573742062652067726561746572207468616e207a60008201527f65726f0000000000000000000000000000000000000000000000000000000000602082015250565b6000611fbf602383611743565b9150611fca82611f63565b604082019050919050565b60006020820190508181036000830152611fee81611fb2565b9050919050565b7f4f6e6c7920746865206f776e65722063616e207570646174652074686520707260008201527f6963650000000000000000000000000000000000000000000000000000000000602082015250565b6000612051602383611743565b915061205c82611ff5565b604082019050919050565b6000602082019050818103600083015261208081612044565b9050919050565b600060408201905061209c6000830185611414565b6120a96020830184611414565b939250505056fea2646970667358221220da0a863017cd828acb04e2c31424c71f301a71e335a141d9f6578e97dcdb230464736f6c63430008180033",
  "linkReferences": {},
  "deployedLinkReferences": {}
}